{
  "_format": "hh-sol-artifact-1",
  "contractName": "SignalRegistry",
  "sourceName": "contracts/SignalRegistry.sol",
  "abi": [
    {
      "inputs": [],
      "name": "AlreadyRegistered",
      "type": "error"
    },
    {
      "inputs": [],
      "name": "CooldownNotElapsed",
      "type": "error"
    },
    {
      "inputs": [],
      "name": "InCooldown",
      "type": "error"
    },
    {
      "inputs": [],
      "name": "InvalidStake",
      "type": "error"
    },
    {
      "inputs": [],
      "name": "NoActiveStake",
      "type": "error"
    },
    {
      "inputs": [],
      "name": "NotActive",
      "type": "error"
    },
    {
      "inputs": [],
      "name": "NotRegistered",
      "type": "error"
    },
    {
      "anonymous": false,
      "inputs": [
        {
          "indexed": true,
          "internalType": "uint256",
          "name": "signalId",
          "type": "uint256"
        },
        {
          "indexed": false,
          "internalType": "uint256",
          "name": "decayFraction",
          "type": "uint256"
        },
        {
          "indexed": false,
          "internalType": "uint256",
          "name": "effectiveWeight",
          "type": "uint256"
        },
        {
          "indexed": false,
          "internalType": "uint256",
          "name": "timestamp",
          "type": "uint256"
        }
      ],
      "name": "DecayCheckpointed",
      "type": "event"
    },
    {
      "anonymous": false,
      "inputs": [
        {
          "indexed": true,
          "internalType": "address",
          "name": "broadcaster",
          "type": "address"
        },
        {
          "indexed": false,
          "internalType": "uint256",
          "name": "stake",
          "type": "uint256"
        }
      ],
      "name": "Deregistered",
      "type": "event"
    },
    {
      "anonymous": false,
      "inputs": [
        {
          "indexed": true,
          "internalType": "address",
          "name": "broadcaster",
          "type": "address"
        },
        {
          "indexed": false,
          "internalType": "uint256",
          "name": "stake",
          "type": "uint256"
        }
      ],
      "name": "Registered",
      "type": "event"
    },
    {
      "anonymous": false,
      "inputs": [
        {
          "indexed": true,
          "internalType": "uint256",
          "name": "signalId",
          "type": "uint256"
        },
        {
          "indexed": true,
          "internalType": "address",
          "name": "broadcaster",
          "type": "address"
        },
        {
          "indexed": true,
          "internalType": "bytes32",
          "name": "topic",
          "type": "bytes32"
        },
        {
          "indexed": false,
          "internalType": "enum SignalRegistry.SignalType",
          "name": "sigType",
          "type": "uint8"
        },
        {
          "indexed": false,
          "internalType": "uint256",
          "name": "stake",
          "type": "uint256"
        },
        {
          "indexed": false,
          "internalType": "uint256",
          "name": "timestamp",
          "type": "uint256"
        }
      ],
      "name": "SignalEmitted",
      "type": "event"
    },
    {
      "inputs": [],
      "name": "COOLDOWN_PERIOD",
      "outputs": [
        {
          "internalType": "uint256",
          "name": "",
          "type": "uint256"
        }
      ],
      "stateMutability": "view",
      "type": "function"
    },
    {
      "inputs": [],
      "name": "HALF_LIFE",
      "outputs": [
        {
          "internalType": "uint256",
          "name": "",
          "type": "uint256"
        }
      ],
      "stateMutability": "view",
      "type": "function"
    },
    {
      "inputs": [],
      "name": "SILENCE_THRESHOLD",
      "outputs": [
        {
          "internalType": "uint256",
          "name": "",
          "type": "uint256"
        }
      ],
      "stateMutability": "view",
      "type": "function"
    },
    {
      "inputs": [],
      "name": "STAKE_AMOUNT",
      "outputs": [
        {
          "internalType": "uint256",
          "name": "",
          "type": "uint256"
        }
      ],
      "stateMutability": "view",
      "type": "function"
    },
    {
      "inputs": [
        {
          "internalType": "address",
          "name": "",
          "type": "address"
        }
      ],
      "name": "broadcasters",
      "outputs": [
        {
          "internalType": "enum SignalRegistry.State",
          "name": "state",
          "type": "uint8"
        },
        {
          "internalType": "uint256",
          "name": "lastSignalTime",
          "type": "uint256"
        },
        {
          "internalType": "uint256",
          "name": "lastActiveTime",
          "type": "uint256"
        }
      ],
      "stateMutability": "view",
      "type": "function"
    },
    {
      "inputs": [
        {
          "internalType": "uint256",
          "name": "signalId",
          "type": "uint256"
        }
      ],
      "name": "checkpointDecay",
      "outputs": [],
      "stateMutability": "nonpayable",
      "type": "function"
    },
    {
      "inputs": [
        {
          "internalType": "address",
          "name": "user",
          "type": "address"
        }
      ],
      "name": "currentState",
      "outputs": [
        {
          "internalType": "enum SignalRegistry.State",
          "name": "",
          "type": "uint8"
        }
      ],
      "stateMutability": "view",
      "type": "function"
    },
    {
      "inputs": [
        {
          "internalType": "uint256",
          "name": "signalId",
          "type": "uint256"
        }
      ],
      "name": "decayFraction",
      "outputs": [
        {
          "internalType": "uint256",
          "name": "",
          "type": "uint256"
        }
      ],
      "stateMutability": "view",
      "type": "function"
    },
    {
      "inputs": [],
      "name": "deregister",
      "outputs": [],
      "stateMutability": "nonpayable",
      "type": "function"
    },
    {
      "inputs": [
        {
          "internalType": "uint256",
          "name": "signalId",
          "type": "uint256"
        }
      ],
      "name": "effectiveWeight",
      "outputs": [
        {
          "internalType": "uint256",
          "name": "",
          "type": "uint256"
        }
      ],
      "stateMutability": "view",
      "type": "function"
    },
    {
      "inputs": [
        {
          "internalType": "address",
          "name": "user",
          "type": "address"
        }
      ],
      "name": "isSilent",
      "outputs": [
        {
          "internalType": "bool",
          "name": "",
          "type": "bool"
        }
      ],
      "stateMutability": "view",
      "type": "function"
    },
    {
      "inputs": [],
      "name": "nextSignalId",
      "outputs": [
        {
          "internalType": "uint256",
          "name": "",
          "type": "uint256"
        }
      ],
      "stateMutability": "view",
      "type": "function"
    },
    {
      "inputs": [],
      "name": "register",
      "outputs": [],
      "stateMutability": "payable",
      "type": "function"
    },
    {
      "inputs": [
        {
          "internalType": "bytes32",
          "name": "topic",
          "type": "bytes32"
        },
        {
          "internalType": "enum SignalRegistry.SignalType",
          "name": "sigType",
          "type": "uint8"
        }
      ],
      "name": "signal",
      "outputs": [],
      "stateMutability": "nonpayable",
      "type": "function"
    },
    {
      "inputs": [
        {
          "internalType": "uint256",
          "name": "",
          "type": "uint256"
        }
      ],
      "name": "signals",
      "outputs": [
        {
          "internalType": "address",
          "name": "broadcaster",
          "type": "address"
        },
        {
          "internalType": "bytes32",
          "name": "topic",
          "type": "bytes32"
        },
        {
          "internalType": "enum SignalRegistry.SignalType",
          "name": "sigType",
          "type": "uint8"
        },
        {
          "internalType": "uint256",
          "name": "timestamp",
          "type": "uint256"
        },
        {
          "internalType": "uint256",
          "name": "stake",
          "type": "uint256"
        }
      ],
      "stateMutability": "view",
      "type": "function"
    },
    {
      "inputs": [
        {
          "internalType": "string",
          "name": "topic",
          "type": "string"
        }
      ],
      "name": "topicHash",
      "outputs": [
        {
          "internalType": "bytes32",
          "name": "",
          "type": "bytes32"
        }
      ],
      "stateMutability": "pure",
      "type": "function"
    }
  ],
  "bytecode": "0x608060405234801561001057600080fd5b50611778806100206000396000f3fe6080604052600436106100f35760003560e01c806388cc10931161008a578063ec1f750811610059578063ec1f750814610323578063ed9748b71461034e578063faf5625f1461038b578063fd28ac7f146103b6576100f3565b806388cc109314610265578063aff5edb1146102a4578063b0c3b8ef146102bb578063c8b4e5f3146102e6576100f3565b80636a564261116100c65780636a564261146101975780636e99d52f146101d45780636fb21559146101ff57806376f896de14610228576100f3565b80631aa3a008146100f857806325d909ea1461010257806347c740cd1461012d5780635f5fc3eb1461016e575b600080fd5b6101006103f3565b005b34801561010e57600080fd5b5061011761056a565b604051610124919061100f565b60405180910390f35b34801561013957600080fd5b50610154600480360381019061014f9190611060565b610571565b60405161016595949392919061115e565b60405180910390f35b34801561017a57600080fd5b5061019560048036038101906101909190611060565b6105d4565b005b3480156101a357600080fd5b506101be60048036038101906101b991906111dd565b61062f565b6040516101cb9190611252565b60405180910390f35b3480156101e057600080fd5b506101e961072c565b6040516101f6919061100f565b60405180910390f35b34801561020b57600080fd5b50610226600480360381019061022191906112be565b610732565b005b34801561023457600080fd5b5061024f600480360381019061024a91906111dd565b610a25565b60405161025c9190611319565b60405180910390f35b34801561027157600080fd5b5061028c600480360381019061028791906111dd565b610b1a565b60405161029b93929190611334565b60405180910390f35b3480156102b057600080fd5b506102b9610b51565b005b3480156102c757600080fd5b506102d0610d4d565b6040516102dd919061100f565b60405180910390f35b3480156102f257600080fd5b5061030d600480360381019061030891906113d0565b610d53565b60405161031a919061141d565b60405180910390f35b34801561032f57600080fd5b50610338610d86565b604051610345919061100f565b60405180910390f35b34801561035a57600080fd5b5061037560048036038101906103709190611060565b610d8d565b604051610382919061100f565b60405180910390f35b34801561039757600080fd5b506103a0610ebe565b6040516103ad919061100f565b60405180910390f35b3480156103c257600080fd5b506103dd60048036038101906103d89190611060565b610ec8565b6040516103ea919061100f565b60405180910390f35b60008060003373ffffffffffffffffffffffffffffffffffffffff1673ffffffffffffffffffffffffffffffffffffffff168152602001908152602001600020905060006002811115610449576104486110e7565b5b8160000160009054906101000a900460ff16600281111561046d5761046c6110e7565b5b146104a4576040517f3a81d6fc00000000000000000000000000000000000000000000000000000000815260040160405180910390fd5b655af3107a400034146104e3576040517f9d749a9200000000000000000000000000000000000000000000000000000000815260040160405180910390fd5b60018160000160006101000a81548160ff0219169083600281111561050b5761050a6110e7565b5b02179055504281600201819055503373ffffffffffffffffffffffffffffffffffffffff167f6f3bf3fa84e4763a43b3d23f9d79be242d6d5c834941ff4c1111b67469e1150c3460405161055f919061100f565b60405180910390a250565b62093a8081565b60016020528060005260406000206000915090508060000160009054906101000a900473ffffffffffffffffffffffffffffffffffffffff16908060010154908060020160009054906101000a900460ff16908060030154908060040154905085565b60006105df82610ec8565b905060006105ec83610d8d565b9050827fa0e910183c848db5b246ce633144ef1fbe68bdc48d4c4e4651121a278990388883834260405161062293929190611438565b60405180910390a2505050565b6000806000808473ffffffffffffffffffffffffffffffffffffffff1673ffffffffffffffffffffffffffffffffffffffff1681526020019081526020016000206040518060600160405290816000820160009054906101000a900460ff1660028111156106a05761069f6110e7565b5b60028111156106b2576106b16110e7565b5b81526020016001820154815260200160028201548152505090506002808111156106df576106de6110e7565b5b816000015160028111156106f6576106f56110e7565b5b0361071e5761012c816020015161070d919061149e565b421061071d576001915050610727565b5b80600001519150505b919050565b61012c81565b60008060003373ffffffffffffffffffffffffffffffffffffffff1673ffffffffffffffffffffffffffffffffffffffff168152602001908152602001600020905060006002811115610788576107876110e7565b5b8160000160009054906101000a900460ff1660028111156107ac576107ab6110e7565b5b036107e3576040517faba4733900000000000000000000000000000000000000000000000000000000815260040160405180910390fd5b6002808111156107f6576107f56110e7565b5b8160000160009054906101000a900460ff16600281111561081a576108196110e7565b5b0361086b5761012c8160010154610831919061149e565b42101561086a576040517f6205804c00000000000000000000000000000000000000000000000000000000815260040160405180910390fd5b5b60028160000160006101000a81548160ff02191690836002811115610893576108926110e7565b5b02179055504281600101819055504281600201819055506000600260008154809291906108bf906114d2565b9190505590506040518060a001604052803373ffffffffffffffffffffffffffffffffffffffff168152602001858152602001846002811115610905576109046110e7565b5b8152602001428152602001655af3107a40008152506001600083815260200190815260200160002060008201518160000160006101000a81548173ffffffffffffffffffffffffffffffffffffffff021916908373ffffffffffffffffffffffffffffffffffffffff1602179055506020820151816001015560408201518160020160006101000a81548160ff021916908360028111156109a9576109a86110e7565b5b02179055506060820151816003015560808201518160040155905050833373ffffffffffffffffffffffffffffffffffffffff16827f3a7127ad5a48602a83fcfa6c0f0149d2f2f4d0f8eb7f7a8e8cf02ba3aafb282386655af3107a400042604051610a179392919061151a565b60405180910390a450505050565b6000806000808473ffffffffffffffffffffffffffffffffffffffff1673ffffffffffffffffffffffffffffffffffffffff1681526020019081526020016000206040518060600160405290816000820160009054906101000a900460ff166002811115610a9657610a956110e7565b5b6002811115610aa857610aa76110e7565b5b815260200160018201548152602001600282015481525050905060006002811115610ad657610ad56110e7565b5b81600001516002811115610aed57610aec6110e7565b5b03610afc576000915050610b15565b62093a808160400151610b0f919061149e565b42119150505b919050565b60006020528060005260406000206000915090508060000160009054906101000a900460ff16908060010154908060020154905083565b60008060003373ffffffffffffffffffffffffffffffffffffffff1673ffffffffffffffffffffffffffffffffffffffff168152602001908152602001600020905060006002811115610ba757610ba66110e7565b5b8160000160009054906101000a900460ff166002811115610bcb57610bca6110e7565b5b03610c02576040517faba4733900000000000000000000000000000000000000000000000000000000815260040160405180910390fd5b60008160000160006101000a81548160ff02191690836002811115610c2a57610c296110e7565b5b0217905550600081600101819055506000816002018190555060003373ffffffffffffffffffffffffffffffffffffffff16655af3107a4000604051610c6f90611582565b60006040518083038185875af1925050503d8060008114610cac576040519150601f19603f3d011682016040523d82523d6000602084013e610cb1565b606091505b5050905080610cf5576040517f08c379a0000000000000000000000000000000000000000000000000000000008152600401610cec906115f4565b60405180910390fd5b3373ffffffffffffffffffffffffffffffffffffffff167fa88d9df5660f8dc80e0de6bb8aff5994cbb5ca3c9d510efec8b62fa23ad09a87655af3107a4000604051610d41919061100f565b60405180910390a25050565b60025481565b60008282604051602001610d68929190611653565b60405160208183030381529060405280519060200120905092915050565b6201518081565b600080600160008481526020019081526020016000206040518060a00160405290816000820160009054906101000a900473ffffffffffffffffffffffffffffffffffffffff1673ffffffffffffffffffffffffffffffffffffffff1673ffffffffffffffffffffffffffffffffffffffff168152602001600182015481526020016002820160009054906101000a900460ff166002811115610e3357610e326110e7565b5b6002811115610e4557610e446110e7565b5b81526020016003820154815260200160048201548152505090506000816060015142610e71919061166c565b9050620151808110610e8857600092505050610eb9565b620151808162015180610e9b919061166c565b8360800151610eaa91906116a0565b610eb49190611711565b925050505b919050565b655af3107a400081565b600080600160008481526020019081526020016000206040518060a00160405290816000820160009054906101000a900473ffffffffffffffffffffffffffffffffffffffff1673ffffffffffffffffffffffffffffffffffffffff1673ffffffffffffffffffffffffffffffffffffffff168152602001600182015481526020016002820160009054906101000a900460ff166002811115610f6e57610f6d6110e7565b5b6002811115610f8057610f7f6110e7565b5b81526020016003820154815260200160048201548152505090506000816060015142610fac919061166c565b9050620151808110610fca57670de0b6b3a764000092505050610ff1565b62015180670de0b6b3a764000082610fe291906116a0565b610fec9190611711565b925050505b919050565b6000819050919050565b61100981610ff6565b82525050565b60006020820190506110246000830184611000565b92915050565b600080fd5b600080fd5b61103d81610ff6565b811461104857600080fd5b50565b60008135905061105a81611034565b92915050565b6000602082840312156110765761107561102a565b5b60006110848482850161104b565b91505092915050565b600073ffffffffffffffffffffffffffffffffffffffff82169050919050565b60006110b88261108d565b9050919050565b6110c8816110ad565b82525050565b6000819050919050565b6110e1816110ce565b82525050565b7f4e487b7100000000000000000000000000000000000000000000000000000000600052602160045260246000fd5b60038110611127576111266110e7565b5b50565b600081905061113882611116565b919050565b60006111488261112a565b9050919050565b6111588161113d565b82525050565b600060a08201905061117360008301886110bf565b61118060208301876110d8565b61118d604083018661114f565b61119a6060830185611000565b6111a76080830184611000565b9695505050505050565b6111ba816110ad565b81146111c557600080fd5b50565b6000813590506111d7816111b1565b92915050565b6000602082840312156111f3576111f261102a565b5b6000611201848285016111c8565b91505092915050565b6003811061121b5761121a6110e7565b5b50565b600081905061122c8261120a565b919050565b600061123c8261121e565b9050919050565b61124c81611231565b82525050565b60006020820190506112676000830184611243565b92915050565b611276816110ce565b811461128157600080fd5b50565b6000813590506112938161126d565b92915050565b600381106112a657600080fd5b50565b6000813590506112b881611299565b92915050565b600080604083850312156112d5576112d461102a565b5b60006112e385828601611284565b92505060206112f4858286016112a9565b9150509250929050565b60008115159050919050565b611313816112fe565b82525050565b600060208201905061132e600083018461130a565b92915050565b60006060820190506113496000830186611243565b6113566020830185611000565b6113636040830184611000565b949350505050565b600080fd5b600080fd5b600080fd5b60008083601f8401126113905761138f61136b565b5b8235905067ffffffffffffffff8111156113ad576113ac611370565b5b6020830191508360018202830111156113c9576113c8611375565b5b9250929050565b600080602083850312156113e7576113e661102a565b5b600083013567ffffffffffffffff8111156114055761140461102f565b5b6114118582860161137a565b92509250509250929050565b600060208201905061143260008301846110d8565b92915050565b600060608201905061144d6000830186611000565b61145a6020830185611000565b6114676040830184611000565b949350505050565b7f4e487b7100000000000000000000000000000000000000000000000000000000600052601160045260246000fd5b60006114a982610ff6565b91506114b483610ff6565b92508282019050808211156114cc576114cb61146f565b5b92915050565b60006114dd82610ff6565b91507fffffffffffffffffffffffffffffffffffffffffffffffffffffffffffffffff820361150f5761150e61146f565b5b600182019050919050565b600060608201905061152f600083018661114f565b61153c6020830185611000565b6115496040830184611000565b949350505050565b600081905092915050565b50565b600061156c600083611551565b91506115778261155c565b600082019050919050565b600061158d8261155f565b9150819050919050565b600082825260208201905092915050565b7f5472616e73666572206661696c65640000000000000000000000000000000000600082015250565b60006115de600f83611597565b91506115e9826115a8565b602082019050919050565b6000602082019050818103600083015261160d816115d1565b9050919050565b600081905092915050565b82818337600083830152505050565b600061163a8385611614565b935061164783858461161f565b82840190509392505050565b600061166082848661162e565b91508190509392505050565b600061167782610ff6565b915061168283610ff6565b925082820390508181111561169a5761169961146f565b5b92915050565b60006116ab82610ff6565b91506116b683610ff6565b92508282026116c481610ff6565b915082820484148315176116db576116da61146f565b5b5092915050565b7f4e487b7100000000000000000000000000000000000000000000000000000000600052601260045260246000fd5b600061171c82610ff6565b915061172783610ff6565b925082611737576117366116e2565b5b82820490509291505056fea2646970667358221220d4d99085a806b73e70fc15b343c6afed8c8c5304b3a9b8d5f9711f216743d67664736f6c63430008140033",
  "linkReferences": {},
  "deployedLinkReferences": {}
}